:100000000C94F2010C94320B0C94070B0C94DC0A48
:100010000C94B10A0C94860A0C945B0A0C94300A76
:100020000C94050A0C9423020C9423020C942302D2
:100030000C9423020C9423020C9423020C942302AC
:100040000C9423020C9423020C9423020C9423029C
:100050000C9423020C9423020C9423020C94BB09ED
:100060000C9423020C94E70B0C94BD0B0C9423020C
:100070000C9423020C9423020C9423020C9423026C
:100080000C9423020C9423020C9423020C9423025C
:100090000C9423020C9423020C9423020C9423024C
:1000A0000C9423020C9423020C9423020C9423023C
:1000B0000C9423020C9423020C9423020C9423022C
:1000C0000C9423020C9423020C9423020C94870BAF
:1000D0000C945D0B0C9423020C9423020C942302C9
:1000E0000C9423020C94E0040C94AE030C9485024F
:1000F0000C943F040C94D2040C947B030C94AF0436
:100100000C94A5020C94E5030C947F020C948204D9
:100110000C9494030C9460040C949E030C940D04B2
:100120000C9478020C94B8030C946A020C94220587
:100130000C949D020C947C020C948A030C941E0473
:100140000C9493020C94EF030C94A1020C948A0576
:100150000C94F9030C9470020C94DB030C94C2030E
:100160000C94AF020C941D0C0C9473030C94AA0213
:100170000C948F020C9489020C94CC030C9481048F
:100180000C9497020C94BE040C9480030C9403040A
:100190000C94A6030C94AB020C9474025B41535470
:1001A000524F204D435520424F4F545D2050726FA7
:1001B000746F636F6C3D76322E3020426175643D02
:1001C0003131353230302053657269616C323D44D3
:1001D000656275675265616479005B4845414420FA
:1001E0005A45524F205345545D20746172653D302D
:1001F0002E30005B4845414420434D445D20616EF4
:10020000676C653D0020523D005B574845454C20DA
:10021000434D445D204C3D002074785F6275665FFD
:1002200061667465723D005B48422041434B205437
:100230005820454E445D20636F756E743D005B48E9
:10024000422041434B20545820424547494E5D20AF
:100250007365713D002074785F6275665F626566E4
:100260006F72653D00207365713D005B484220520E
:10027000585D2069643D30783031206C656E3D00FA
:100280002074785F617661696C3D00206865616407
:100290005F7469636B733D00206D6F745F656E3DC5
:1002A000002068625F61636B3D005B4D43552053E6
:1002B00054415455532031735D2068625F72783D1C
:1002C0000000002100240027002A002D0030003308
:1002D0000001010000040107010A010000220025BD
:1002E0000028002B002E0031003400020100000520
:1002F0000108010B01000020002300260029002C2A
:10030000002F003200000100000301060109010571
:10031000050505070508080808020202020A0A087E
:1003200008040404040101010101010101030303A4
:100330000303030303040707070C0C0C0C0C0C0C41
:100340000C0202020206060606060606060B0B0B48
:100350000B0B0B0B0B010210202008081020401083
:100360002040800201020108040201010204081079
:100370002040808040201008040201800402018097
:1003800040201008040201080402010102040810C0
:10039000204080010204081020408000000A0B0267
:1003A000090C0D0E08070304010000000000000006
:1003B000000000000000000000000000000000003D
:1003C00000000000000000121110000000000000FA
:1003D000000000000000000000000000000000001D
:1003E00000001D0C11241FBECFEFD1E2DEBFCDBF38
:1003F00000E00CBF12E0A0E0B2E0EEE9FDE200E0B8
:100400000BBF02C007900D92A233B107D9F724E0C9
:10041000A2E3B2E001C01D92A13EB207E1F711E0F4
:10042000C2EFD1E000E006C021970109802FFE0154
:100430000E942C14C13FD10780E00807A9F70E9451
:10044000700C0C94CD160C940000FC01A089B189AD
:1004500082E08C93A485B5851C92A685B78580E142
:100460008C93108EA489B58986E08C93A289B38978
:100470008C9180618C93A289B3898C9188608C93D4
:10048000A289B3898C9180688C930288F389E02DCE
:1004900080818F7D808308958150823108F05AC019
:1004A000E82FF0E08827E85AFD4F8F4F0C942C146A
:1004B00078027C026A0270027402AA027F0285023C
:1004C00089028F02930297029D02A102AA02A5024D
:1004D000AB02AF02809180008F77809380000895F7
:1004E000809180008F7DF9CF80918000877FF5CF4C
:1004F00084B58F7784BD089584B58F7DFBCF8091BF
:10050000B0008F778093B00008958091B0008F7D08
:10051000F9CF809190008F7780939000089580911B
:1005200090008F7DF9CF80919000877FF5CF8091EB
:10053000A0008F778093A00008958091A0008F7D08
:10054000F9CF8091A000877FF5CF809120018F7730
:10055000809320010895809120018F7DF9CF8091B3
:100560002001877FF5CFCF93DF93282F30E0F9016B
:10057000E556FC4F8491F901EB5AFC4FD491F901F7
:10058000E15FFC4FC491CC23A1F081110E944C0289
:10059000EC2FF0E0EE0FFF1FEB50FD4FA591B49153
:1005A000EC91ED2381E090E009F480E0DF91CF91C0
:1005B000089580E090E0FACF1F93CF93DF93282F28
:1005C00030E0F901E556FC4F8491F901EB5AFC4FFC
:1005D000D491F901E15FFC4FC491CC23A9F0162F0F
:1005E00081110E944C02EC2FF0E0EE0FFF1FE5524C
:1005F000FD4FA591B4918FB7F894EC91111108C0FB
:10060000D095DE23DC938FBFDF91CF911F910895AA
:10061000DE2BF8CFCF93DF9390E0FC01EB5AFC4F39
:100620002491815F9C4FFC0184918823D1F090E05C
:10063000880F991FFC01EF53FD4FA591B491FC0168
:10064000E552FD4FC591D491623071F49FB7F89493
:100650003C91822F809583238C93E8812E2B2883D5
:100660009FBFDF91CF9108958FB7F894EC912E2B17
:100670002C938FBFF6CF1F93CF93DF93182FEB01EF
:1006800061E00E940A03209739F460E0812FDF9136
:10069000CF911F910C94DC02CF3FD10511F461E0A2
:1006A000F5CFE12FF0E0E556FC4FE491E150E23167
:1006B00008F0B3C0F0E08827EF59FC4F8F4F0C943F
:1006C0002C1473037B0380038A0394030D049E039D
:1006D000A603AE03B803C203CC03DB03E5030D049A
:1006E000EF03F903030484B5806884BDC7BDDF91BF
:1006F000CF911F91089584B5806284BDC8BDF7CFA6
:1007000080918000806880938000D0938900C0939E
:100710008800EDCF80918000806280938000D0932C
:100720008B00C0938A00E3CF809180008860809323
:100730008000D0938D00C0938C00D9CF8091B00001
:1007400080688093B000C093B300D1CF8091B00097
:1007500080628093B000C093B400C9CF80919000B4
:10076000806880939000D0939900C0939800BFCF89
:1007700080919000806280939000D0939B00C09302
:100780009A00B5CF80919000886080939000D093BC
:100790009D00C0939C00ABCF8091A00080688093A7
:1007A000A0008091A0008F7B8093A000D093A9002F
:1007B000C093A8009CCF8091A00080628093A0008D
:1007C000D093AB00C093AA0092CF8091A000886024
:1007D0008093A000D093AD00C093AC0088CF8091EF
:1007E0002001806880932001D0932901C0932801C3
:1007F0007ECF80912001806280932001D0932B01D5
:10080000C0932A0174CF80912001886080932001D9
:10081000D0932D01C0932C016ACFC038D1050CF0C4
:100820003ECF33CF2FB7F89460919F027091A00212
:100830008091A1029091A2022FBF089583E00E94AF
:10084000B30241E050E060E070E0892B19F04FEF17
:100850005FEFBA018091820290918302A09184029D
:10086000B0918502840F951FA61FB71F8093820247
:1008700090938302A0938402B0938502089583E14C
:100880000E94B30241E050E060E070E0892B19F073
:100890004FEF5FEFBA0180917E0290917F02A091AD
:1008A0008002B0918102840F951FA61FB71F80930D
:1008B0007E0290937F02A0938002B09381020895FC
:1008C00084E10E94B3024FEF5FEFBA01892B21F060
:1008D00041E050E060E070E080914E0290914F0264
:1008E000A0915002B0915102840F951FA61FB71F0F
:1008F00080934E0290934F02A0935002B093510206
:1009000008950895AF92BF92CF92DF92EF92FF9237
:100910000F931F93CF93DF936C017B018B01040F27
:10092000151FEB015E01AE18BF08C017D10759F0C3
:100930006991D601ED91FC910190F081E02DC60105
:100940001995892B79F7C501DF91CF911F910F91EF
:10095000FF90EF90DF90CF90BF90AF900895FC0193
:10096000538D448D252F30E0842F90E0821B930B14
:10097000541710F0CF96089501970895FC01918DBA
:10098000828D981761F0A28DAE0FBF2FB11D5D96BD
:100990008C91928D9F5F9F73928F90E008958FEF5F
:1009A0009FEF0895FC01918D828D981731F0828D13
:1009B000E80FF11D858D90E008958FEF9FEF08956A
:1009C000FC01918D228D892F90E0805C9F4F821BCE
:1009D00091098F739927089587EA93E00E94E004B4
:1009E00021E0892B09F420E0822F089584E494E02B
:1009F0000E94E00421E0892B09F420E0822F089571
:100A0000FC01A48DA80FB92FB11DA35ABF4F2C9183
:100A1000848D90E001968F739927848FA689B7897A
:100A20002C93A089B1898C91837080648C93938D71
:100A3000848D981306C00288F389E02D80818F7D14
:100A400080830895EF92FF920F931F93CF93DF93CC
:100A5000EC0181E0888F9B8D8C8D98131AC0E889FA
:100A6000F989808185FF15C09FB7F894EE89FF89C9
:100A70006083E889F98980818370806480839FBF67
:100A800081E090E0DF91CF911F910F91FF90EF9067
:100A90000895F62E0B8D10E00F5F1F4F0F73112777
:100AA000E02E8C8D8E110CC00FB607FCFACFE889B2
:100AB000F989808185FFF5CFCE010E940005F1CF35
:100AC000EB8DEC0FFD2FF11DE35AFF4FF0829FB726
:100AD000F8940B8FEA89FB8980818062CFCF0F93D6
:100AE0001F93CF93DF938C01D0E0C0E0F801EC0FAF
:100AF000FD1F6491662341F087EA93E00E9422057E
:100B0000892B11F02196F2CFCE01DF91CF911F9169
:100B10000F910895CF93DF93EC01888D8823B9F06E
:100B2000AA89BB89E889F9898C9185FD03C08081F8
:100B300086FD0DC00FB607FCF7CF8C9185FFF2CF75
:100B4000808185FFEDCFCE010E940005E9CFDF91C6
:100B5000CF91089580E090E0892B29F00E94F6045F
:100B600081110E94000080E090E0892B49F080E034
:100B700090E0892B29F00E94000081110E94000062
:100B800080E090E0892B29F00E94EC0481110E9402
:100B9000000080E090E0892B49F080E090E0892B14
:100BA00029F00E94000081110C94000008952F92FA
:100BB0003F924F925F926F927F928F929F92AF92ED
:100BC000BF92CF92DF92EF92FF920F931F93CF933A
:100BD000DF9300D000D000D01F92CDB7DEB71C014C
:100BE0004A015B01280139018701DE82CD8220E0C4
:100BF00030E0A901CB01B4010E941A1618169CF529
:100C00002AE037ED43E25CE3C501B4010E94BB1466
:100C100087FF33C0D8011D921D921D921C9213971D
:100C2000ED81FE8110821182128213821A8619864A
:100C300089859A852A960FB6F894DEBF0FBECDBF80
:100C4000DF91CF911F910F91FF90EF90DF90CF90A8
:100C5000BF90AF909F908F907F906F905F904F90DC
:100C60003F902F9008952AE037ED43E25CEBC501F9
:100C7000B4010E941A1618166CF2A3019201C50164
:100C8000B4010E944E142B013C01D101ED91FC9165
:100C900060817181828193810E94681520E030E03B
:100CA0004AE754E40E94C01469837A838B839C834F
:100CB000ED81FE812081318142815381C301B201E6
:100CC0000E944E1429813A814B815C810E94C0149C
:100CD0006B017C01AD81BE814D925D926D927C92E3
:100CE000139720E030E0A901C501B4010E941A1653
:100CF000812C912C38ECA32E31ECB32E181634F441
:100D0000812C912C28ECA22E21E4B22ED8018D91B9
:100D10009D910D90BC91A02D8D839E83AF83B8874C
:100D20002AE939E949E95FE3C301B2010E94521699
:100D3000A50194010E944F144B015C012DEC3CEC89
:100D40004CE45EE36D817E818F8198850E9452160E
:100D50009B01AC01C501B4010E944F144B015C0121
:100D600020E030E0A901C701B6010E9452169B01A4
:100D7000AC01C501B4010E944F146B017C0120E05D
:100D800030E04FE753EC0E94BB1487FD40C020E0E9
:100D900030E04FE753E4C701B6010E941A16181657
:100DA000DCF1C701B6010E9432157A87698789850F
:100DB0009A8582509F4F8D3F914008F039CF29810D
:100DC0003A814B815C81C301B2010E9452162D8190
:100DD0003E814F8158850E944F146B017C0120E0B9
:100DE00030E048E452EC0E94BB1487FD1AC020E0BA
:100DF00030E048E452E4C701B6010E941A16181602
:100E0000BCF0F801C082D182E282F38211CFE1E02E
:100E1000FFEFFA87E987CBCF8FEF90E09A8789873A
:100E2000C6CFC12CD12C98E4E92E92ECF92EE9CF53
:100E3000C12CD12C88E4E82E82E4F82EE2CF0F9367
:100E40001F93CF93DF93082F162FEA018827992746
:100E5000821B930B48175907F4F0241735076CF0E1
:100E600057FF0CC070E060E0802F0E943B036627B4
:100E700077276C1B7D0B812F08C0E90170E060E0D3
:100E8000812F0E943B03BE01802FDF91CF911F91E4
:100E90000F910C943B03EC01E5CF893C910514F0D4
:100EA00088EC90E088332FEF920714F488E39FEFEB
:100EB000909333028093320228EC30E0AC016CE274
:100EC00070E08DE290E00C941F072FEF30E050E0CF
:100ED00040E066E070E085E090E00E941F072FEFA1
:100EE00030E050E040E06AE070E089E090E00E948D
:100EF0001F0790E080E00C944D07FC01680F791FFC
:100F000080E027E0E617F70761F09191892798E0E4
:100F100087FF05C0880F82279150D1F7F3CF880F44
:100F2000FBCF08959F92AF92BF92CF92DF92EF9244
:100F3000FF920F931F93CF93DF93CDB7DEB7DA9570
:100F40000FB6F894DEBF0FBECDBF982E5B016A01CD
:100F500079010091A502098310E0A80166EA72E018
:100F6000CE0102960E94C416B8016F5F7F4FCE017A
:100F700001960E947D07891125C08091A602F50186
:100F8000808387EA92E0F601918380838091A502B5
:100F90008150F70180831092A4021092A30281E095
:100FA000D3950FB6F894DEBF0FBECDBFDF91CF91C2
:100FB0001F910F91FF90EF90DF90CF90BF90AF9077
:100FC0009F90089581E090E0FAEA9F1611F090E07A
:100FD00080E09093A4028093A30280E0E1CFBF92CF
:100FE000CF92DF92EF92FF920F931F93CF93DF93F5
:100FF000CDB7DEB7DA950FB6F894DEBF0FBECDBF22
:10100000C82E7B01D42EBB24B394B40E6AEA84E4C8
:1010100094E00E94220565E584E494E00E942205A4
:101020006B2D84E494E00E9422056C2D84E494E00E
:101030000E9422050D2D10E0DD2049F0E114F1049D
:1010400031F0A801B70184E494E00E948204B982DF
:10105000CA82DD2049F0E114F10431F0A801B701A2
:10106000CE0103960E94C416B8016E5F7F4FCE0179
:1010700001960E947D07682F84E494E00E94220577
:10108000D3950FB6F894DEBF0FBECDBFDF91CF91E1
:101090001F910F91FF90EF90DF90CF90BF90089538
:1010A000FC0101900020E9F73197AF01481B590B73
:1010B000BC0187EA93E00C9482048F929F92AF92D6
:1010C000BF920F931F93CF93DF93CDB7DEB7A19756
:1010D0000FB6F894DEBF0FBECDBF19A2423008F4A0
:1010E0004AE08E010F5D1F4F842E912CB12CA12C54
:1010F000A50194010E940A14E62FB901CA01EA3041
:10110000F4F4E05DD801EE938D01232B242B252BE5
:1011100079F790E080E0109719F0CD010E94500817
:10112000A1960FB6F894DEBF0FBECDBFDF91CF9171
:101130001F910F91BF90AF909F908F900895E95CA1
:10114000E1CFCF92DF92EF92FF92CF93DF9397FFA1
:101150001BC06B017C016DE287EA93E00E942205CF
:10116000EC0166277727CB016C197D098E099F0951
:101170004AE00E945D088C0F9D1FDF91CF91FF9088
:10118000EF90DF90CF9008954AE0DF91CF91FF90EC
:10119000EF90DF90CF900C945D08CF93DF93BC016C
:1011A000990F880B990B0E94A108EC0183E292E051
:1011B0000E9450088C0F9D1FDF91CF9108954F9290
:1011C0005F926F927F928F929F92AF92BF92CF92D7
:1011D000DF92EF92FF920F931F93CF936B017C01ED
:1011E000742EAC019B010E94BF16882399F086E201
:1011F00092E0CF911F910F91FF90EF90DF90CF90F1
:10120000BF90AF909F908F907F906F905F904F9026
:101210000C94500846015701E894B7F82FEF3FEFC0
:101220004FE75FE7C501B4010E94BF1681110DC0F1
:101230002FEF3FEF4FE75FE7C501B4010E94BB14FA
:1012400018161CF48AE292E0D4CF2FEF3FEF4FE75D
:101250005FE4C701B6010E941A1618161CF48EE24C
:1012600092E0C7CF2FEF3FEF4FE75FECC701B6012A
:101270000E94BB1487FDF3CF20E030E0A901C70135
:10128000B6010E94BB1410E000E087FF0AC06DE2C7
:1012900087EA93E00E9422058C01F7FAF094F7F8B0
:1012A000F094C0E060E070E080E09FE37C1641F0E5
:1012B00020E030E040E251E40E94C014CF5FF6CF5E
:1012C000A70196010E944F142B013C010E94391581
:1012D0004B015C014AE00E945D087C01E00EF11EBA
:1012E000CC23C1F1C501B4010E9468159B01AC017A
:1012F000C301B2010E944E144B015C016EE287EA09
:1013000093E00E942205E80EF91EC15018F120E07A
:1013100030E040E251E4C501B4010E9452162B01B5
:101320003C010E9439154B01B12CA12C4AE0C501AA
:10133000B4010E945D08E80EF91EC501B4010E94C7
:1013400068159B01AC01C301B2010E944E144B0110
:101350005C01DBCFC701CF911F910F91FF90EF9000
:10136000DF90CF90BF90AF909F908F907F906F90C5
:101370005F904F9008951F920F920FB60F92112415
:101380002F933F938F939F93AF93BF9380919F022F
:101390009091A002A091A102B091A20230919E0270
:1013A00023E0230F2D3758F50196A11DB11D209381
:1013B0009E0280939F029093A002A093A102B093FB
:1013C000A20280919A0290919B02A0919C02B091FE
:1013D0009D020196A11DB11D80939A0290939B02DC
:1013E000A0939C02B0939D02BF91AF919F918F916A
:1013F0003F912F910F900FBE0F901F90189526E8E8
:10140000230F0296A11DB11DD2CF1F920F920FB6CE
:101410000F9211240BB60F922F933F934F935F932C
:101420006F937F938F939F93AF93BF93EF93FF93AC
:10143000E0910E02F0910F021995FF91EF91BF918B
:10144000AF919F918F917F916F915F914F913F915C
:101450002F910F900BBE0F900FBE0F901F901895FD
:101460001F920F920FB60F9211240BB60F922F936B
:101470003F934F935F936F937F938F939F93AF931C
:10148000BF93EF93FF93E0910C02F0910D02199539
:10149000FF91EF91BF91AF919F918F917F916F914C
:1014A0005F914F913F912F910F900BBE0F900FBE08
:1014B0000F901F9018951F920F920FB60F92112444
:1014C0000BB60F922F933F934F935F936F937F933E
:1014D0008F939F93AF93BF93EF93FF93E09102029B
:1014E000F09103021995FF91EF91BF91AF919F91F8
:1014F0008F917F916F915F914F913F912F910F90BD
:101500000BBE0F900FBE0F901F9018951F920F9259
:101510000FB60F9211240BB60F922F933F934F9358
:101520005F936F937F938F939F93AF93BF93EF934B
:10153000FF93E0910002F09101021995FF91EF9164
:10154000BF91AF919F918F917F916F915F914F91DB
:101550003F912F910F900BBE0F900FBE0F901F90D9
:1015600018951F920F920FB60F9211240BB60F927F
:101570002F933F934F935F936F937F938F939F939B
:10158000AF93BF93EF93FF93E0910A02F0910B02A8
:101590001995FF91EF91BF91AF919F918F917F919D
:1015A0006F915F914F913F912F910F900BBE0F90D4
:1015B0000FBE0F901F9018951F920F920FB60F92AB
:1015C00011240BB60F922F933F934F935F936F931A
:1015D0007F938F939F93AF93BF93EF93FF93E0918C
:1015E0000802F09109021995FF91EF91BF91AF9117
:1015F0009F918F917F916F915F914F913F912F912B
:101600000F900BBE0F900FBE0F901F9018951F925A
:101610000F920FB60F9211240BB60F922F933F9398
:101620004F935F936F937F938F939F93AF93BF93EA
:10163000EF93FF93E0910602F09107021995FF9155
:10164000EF91BF91AF919F918F917F916F915F913A
:101650004F913F912F910F900BBE0F900FBE0F90A7
:101660001F9018951F920F920FB60F9211240BB670
:101670000F922F933F934F935F936F937F938F932B
:101680009F93AF93BF93EF93FF93E0910402F09188
:1016900005021995FF91EF91BF91AF919F918F91A5
:1016A0007F916F915F914F913F912F910F900BBE62
:1016B0000F900FBE0F901F9018951F920F920FB6AC
:1016C0000F9211240BB60F922F933F934F935F937A
:1016D0006F937F938F939F93AF93BF93EF93FF93FA
:1016E00087EA93E00E940005FF91EF91BF91AF91CF
:1016F0009F918F917F916F915F914F913F912F912A
:101700000F900BBE0F900FBE0F901F9018951F9259
:101710000F920FB60F9211240BB60F922F938F9347
:101720009F93EF93FF93E091B703F091B80380810B
:10173000E091BD03F091BE0382FD1DC090818091B8
:10174000C0038F5F8F732091C103821741F0E09136
:10175000C003F0E0E955FC4F958F8093C003FF91E3
:10176000EF919F918F912F910F900BBE0F900FBE15
:101770000F901F9018958081F2CF1F920F920FB695
:101780000F9211240BB60F922F933F934F935F93B9
:101790006F937F938F939F93AF93BF93EF93FF9339
:1017A00084E494E00E940005FF91EF91BF91AF9116
:1017B0009F918F917F916F915F914F913F912F9169
:1017C0000F900BBE0F900FBE0F901F9018951F9299
:1017D0000F920FB60F9211240BB60F922F938F9387
:1017E0009F93EF93FF93E0915404F091550480810F
:1017F000E0915A04F0915B0482FD1DC090818091BC
:101800005D048F5F8F7320915E04821741F0E09139
:101810005D04F0E0EC5BFB4F958F80935D04FF91DE
:10182000EF919F918F912F910F900BBE0F900FBE54
:101830000F901F9018958081F2CFE7EAF3E01382B2
:10184000128248EE53E060E070E044835583668383
:10185000778385E192E09183808325ED30E03587C1
:10186000248724ED30E03787268720ED30E0318B68
:10187000208B21ED30E0338B228B22ED30E0358B55
:10188000248B26ED30E0378B268B118E128E138E33
:10189000148EE4E4F4E01382128244835583668359
:1018A00077839183808385EC90E09587848784ECAF
:1018B00090E09787868780EC90E0918B808B81EC1D
:1018C00090E0938B828B82EC90E0958B848B86ECFE
:1018D00090E0978B868B118E128E138E148E089546
:1018E000CF93DF93CDB7DEB7AF970FB6F894DEBFD7
:1018F0000FBECDBF789484B5826084BD84B581600D
:1019000084BD85B5826085BD85B5816085BD8091CA
:101910006E00816080936E00109281008091810042
:10192000826080938100809181008160809381003A
:10193000809180008160809380008091B1008460FC
:101940008093B1008091B00081608093B00080915D
:1019500091008260809391008091910081608093DA
:101960009100809190008160809390008091A1000F
:1019700082608093A1008091A10081608093A1008A
:101980008091A00081608093A000809121018260FD
:1019900080932101809121018160809321018091B8
:1019A000200181608093200180917A00846080937F
:1019B0007A0080917A00826080937A0080917A0028
:1019C000816080937A0080917A00806880937A00A9
:1019D0001092C10060E085E00E94DC0260E086E0D9
:1019E0000E94DC0260E089E00E94DC0260E08AE0A4
:1019F0000E94DC0260E08DE20E94DC0260E08CE28A
:101A00000E94DC0261E08DE00E940A0361E085E053
:101A10000E940A0361E086E00E940A0361E089E017
:101A20000E940A0361E08AE00E940A0361E08DE2FD
:101A30000E940A0361E08CE20E940A0362E082E0F5
:101A40000E940A0362E083E00E940A0362E082E1EE
:101A50000E940A0362E083E10E940A0362E085E1DA
:101A60000E940A0362E084E10E940A038EE194E08E
:101A7000909301028093000280916A0083608093BA
:101A80006A00EC9A8FE394E090930B0280930A0231
:101A900080916900806C80936900EB9A80E694E005
:101AA0009093050280930402809169008360809383
:101AB0006900E89A8091B100887F81608093B100CD
:101AC00080919100887F8160809391008091A10036
:101AD000887F81608093A10080912101887F81604F
:101AE000809321010E94650784E494E00E9425020E
:101AF00087EA93E00E9425028CE991E00E946F053D
:101B000083E292E00E945008109245021092460231
:101B100010924702109248020E941204609334020D
:101B20007093350280933602909337020E9412041C
:101B300060938E0270938F02809390029093910233
:101B40000E94120460938A0270938B0280938C022D
:101B500090938D020E94120460935A0270935B026C
:101B600080935C0290935D0288E19FE00FB6F89449
:101B7000A895809360000FBE909360001E0121E144
:101B8000220E311CA8958091920281110BC01092F7
:101B9000A4021092A3021092A5021092A60381E063
:101BA0008093920202E010E084E494E00E94E0045A
:101BB000181619060CF065C284E494E00E94BE0475
:101BC0002091A3023091A4022230310509F4D5C03E
:101BD00078F42115310509F4BEC02130310521F713
:101BE000853509F0C2C01093A4020093A302DCCF94
:101BF0002330310509F4CCC024303105A9F69E010B
:101C00002B5E3F4FA101BE01695E7F4F0E9492078C
:101C1000882351F27D88E988FA888F89823009F417
:101C20002FC108F0CBC0813009F0BECF80915602A1
:101C300090915702A0915802B09159020196A11DAE
:101C4000B11D8093560290935702A0935802B0930F
:101C500059020E94120460938A0270938B0280934F
:101C60008C0290938D028DE00E94B30261E0892B7B
:101C700009F060E08DE00E94DC02B3E0B71508F0E7
:101C8000FBC0E114F10409F4F7C0F70180809180F2
:101C9000A280B38084E494E00E94AF046C018BE6E0
:101CA00092E00E946F05672D70E090E080E04AE0CE
:101CB0000E945D0885E692E00E946F054AE0C5013A
:101CC000B4010E945D0885E592E00E946F05C6019F
:101CD0000E94CD088EE392E00E946F054AE0C501A4
:101CE000B4010E945D0883E292E00E945008472DF3
:101CF000B70183E10E94EF07809152029091530255
:101D0000A0915402B09155020196A11DB11D80937E
:101D1000520290935302A0935402B093550284E46C
:101D200094E00E94AF047C0187E292E00E946F057C
:101D30006091520270915302809154029091550229
:101D40004AE00E945D0888E192E00E946F05C701A9
:101D50000E94CD0829CF8A3A09F026CF41E050E011
:101D60005093A4024093A3021FCF8A3A09F41CCFD8
:101D70001092A4021092A30217CF8093A502109292
:101D8000A60383E090E09093A4028093A3020CCF7B
:101D9000E091A60391E09E0F9093A603F0E0ED552D
:101DA000FD4F83838091A502981708F4FDCEA4E02F
:101DB000B0E0B093A402A093A302F6CE833009F45E
:101DC000A9C0843009F0F0CEF89410924E0210921F
:101DD0004F021092500210925102789410924502D4
:101DE0001092460210924702109248021092490245
:101DF00010924A0210924B0210924C021092400232
:101E00001092410210924202109243021092380244
:101E10001092390210923A0210923B020E94120470
:101E200060933402709335028093360290933702A8
:101E30008091860290918702A0918802B0918902D8
:101E40008B7F8093860290938702A0938802B09341
:101E5000890290E080E00E944D070E941204609386
:101E60008A0270938B0280938C0290938D028AED8C
:101E700091E00E946F0549C0812C912C54010ACF3A
:101E8000F7E0F71508F090CEF70180819181A281EB
:101E9000B3818093720290937302A0937402B09303
:101EA000750284819581A681B781809366029093A3
:101EB0006702A0936802B09369020E9412046093C3
:101EC0008A0270938B0280938C0290938D0289E03A
:101ED00092E00E946F05609172027091730280918E
:101EE00074029091750242E00E94DF0885E092E062
:101EF0000E946F056091660270916702809168028E
:101F00009091690242E00E94DF0883E292E00E9421
:101F100050084ACEF3E0F71508F046CED7018D9071
:101F20009D90AD90BC9089829A82AB82BC82240144
:101F30003501C0908602D0908702E0908802F09030
:101F4000890220E030E044E353ECC501B4010E9473
:101F5000BB1487FD4AC420E030E044E353E4C501EC
:101F6000B4010E941A1618160CF446C4A501940177
:101F7000C501B4010E94BB14882309F47FC0689492
:101F8000C3F8C0928602D0928702E0928802F09253
:101F900089022CEB34E743E95EE3C301B2010E94FE
:101FA00052160E941F16C0904502D0904602E09043
:101FB0004702F09048029B01AC012C193D094E09E3
:101FC0005F0969017A01F7FE08C0F094E094D094AB
:101FD000C094C11CD11CE11CF11C32E0C316D10419
:101FE000E104F104ACF160934502709346028093E2
:101FF000470290934802F89480914E0290914F02CC
:10200000A0915002B091510278948093380290933D
:102010003902A0933A02B0933B020E9412046093EB
:102020003402709335028093360290933702809188
:10203000860290918702A0918802B09189028B7FDD
:102040008093860290938702A0938802B0938902BE
:1020500041E0409344020E94120460938A0270930C
:102060008B0280938C0290938D0283EF91E00E940B
:102070006F0569817A818B819C8144CFE894C3F894
:1020800080CF0E941204688F798F8A8F9B8F8091F6
:102090008E0290918F02A0919002B0919102C88C13
:1020A000D98CEA8CFB8CC81AD90AEA0AFB0AD70138
:1020B000C60184319105A105B10508F45AC2898B86
:1020C0009A8BAB8BBC8B288D398D4A8D5B8D209381
:1020D0008E0230938F024093900250939102C090F1
:1020E0008602D0908702E0908802F0908902809169
:1020F0008A0290918B02A0918C02B0918D02281BD4
:10210000390B4A0B5B0BDA01C901853F9140A105F0
:10211000B10508F431C2109210020E94650768945C
:10212000C0F8C0928602D0928702E0928802F092B4
:102130008902F89440918202509183026091840256
:10214000709185027894F89480917E0290917F023C
:10215000A0918002B0918102789400917A0210914E
:102160007B0220917C0230917D026A017B01C01AC2
:10217000D10AE20AF30AC8A2D9A2EAA2FBA20091FC
:1021800076021091770220917802309179026C01E9
:102190007D01C01AD10AE20AF30ACCA2DDA2EEA2A6
:1021A000FFA240937A0250937B0260937C0270936B
:1021B0007D028093760290937702A0937802B09389
:1021C000790269897A898B899C893E8A2D8A209136
:1021D0001002222309F4D6C10E94681520E030E6DF
:1021E0004AE657E40E94C0142B013C0168A179A182
:1021F0008AA19BA10E946A1520E030E040E05AE3EA
:102200000E945216A30192010E94C0148B019C01EE
:102210004091720250917302609174027091750244
:10222000EAE6CE2EE2E0DE2EFEE6EF2EF2E0FF2E14
:10223000CE0145960E94D7055C016CA17DA18EA1BF
:102240009FA10E946A1520E030E040E05AE30E941E
:102250005216A30192010E94C0148B019C0140916F
:102260006602509167026091680270916902AEE562
:10227000CA2EA2E0DA2EB2E6EB2EB2E0FB2ECE01A1
:1022800045960E94D7058C012FEF30E0A50166E04E
:1022900070E085E090E00E941F072FEF30E0A8017A
:1022A0006AE070E089E090E00E941F07C988DA8840
:1022B000EB88FC88F89440904E0250904F0260905A
:1022C000500270905102789480914D0281110FC09C
:1022D000C301B2010E946A156093490270934A02D9
:1022E00080934B0290934C0281E080934D02C70192
:1022F000B6010E94681520E030E04AE754E40E94ED
:10230000C0146C8F7D8F8E8F9F8F2BEE31E548EB45
:1023100050E40E9452166B017C016091450270915D
:10232000460280914702909148020E946A1568A770
:1023300079A78AA79BA72091490230914A02409130
:102340004B0250914C022CA73DA74EA75FA70E94BD
:102350004E144B015C0120E030E0A9010E941A16E6
:10236000A501940118160CF44EC25058C701B601CD
:102370000E941A1687FD0BC1C8A4D9A4EAA4FBA425
:10238000C0924902D0924A02E0924B02F0924C0273
:102390006091490270914A0280914B0290914C02E7
:1023A0000E941F166B017C01C418D508E608F708C7
:1023B00080911002882321F0809144028111FCC099
:1023C00090E080E00E944D07C0924002D09241020E
:1023D000E0924202F092430210923C0210923D02BF
:1023E00010923E0210923F024092380250923902FF
:1023F00060923A0270923B020E941204609334028F
:1024000070933502809336029093370229893A8976
:102410004B895C89A8EEB3E00E943414F8940091D3
:102420004E0210914F022091500230915102789447
:10243000C8A0D9A0EAA0FBA0C982DA82EB82FC8204
:10244000CCA0DDA0EEA0FFA0CD82DE82EF82F886D8
:1024500009871A872B873C876D877E878F87988BA4
:1024600040E1BE016F5F7F4F81E10E94EF078091E5
:10247000860290918702A0918802B091890220EE95
:102480003EE23A83298324EC39E03C832B838D831D
:102490009E83AF83B88748E0BE016F5F7F4F82E1C4
:1024A0000E94EF0780915A0290915B02A0915C021A
:1024B000B0915D02288D398D4A8D5B8D281B390BBB
:1024C0004A0B5B0BDA01C901883E9340A105B105B7
:1024D00008F44FC0888D998DAA8DBB8D80935A02C8
:1024E00090935B02A0935C02B0935D028AEA92E053
:1024F0000E946F05609156027091570280915802B8
:10250000909159024AE00E945D0881EA92E00E949F
:102510006F05609152027091530280915402909124
:1025200055024AE00E945D0888E992E00E946F052A
:102530006091100270E090E080E00E94A1088BE8BA
:1025400092E00E946F05F89460914E0270914F02E4
:10255000809150029091510278940E94A10880E8E5
:1025600092E00E946F0584E494E00E94AF040E9410
:10257000CD080E94AA0506CB81E080931002E89462
:10258000C0F8CFCD10E000E0B12CA12C7DCEF7FA41
:10259000F094F7F8F094A70196016CA57DA58EA59F
:1025A0009FA50E944F146093490270934A02809342
:1025B0004B0290934C02ECCED701C6010196A11DAF
:1025C000B11D0397A105B10508F4FACE8091400230
:1025D00090914102A0914202B0914302A70196015D
:1025E000281B390B4A0B5B0BCA01B9010E946A1503
:1025F0002C8D3D8D4E8D5F8D0E94C014C092400287
:10260000D0924102E0924202F092430280903C025A
:1026100090903D02A0903E02B0903F02A50194012F
:102620000E944E1420E030E040E85EE30E94521623
:10263000A50194010E944F144B015C0180923C0261
:1026400090923D02A0923E02B0923F021C141D04E3
:102650001E041F040CF096C080E090E0A2EDB2E4EE
:102660008C8F9D8FAE8FBF8FC701B6010E946A15F8
:1026700020E030E040E451E40E9452162C8D3D8D64
:102680004E8D5F8D0E944F146B017C012DEC3CEC54
:102690004CEC5EE3C501B4010E9452169B01AC01F3
:1026A000C701B6010E944F146B017C0120E030E0AD
:1026B00048E453EC0E94BB1468E37FEF87FD10C031
:1026C00020E030E048E453E4C701B6010E941A1646
:1026D00068EC70E0181624F0C701B6010E943215AC
:1026E00080913202909133029B01281B390B2A31D1
:1026F00031050CF450C0BC01675E7F4FCB010E94D6
:102700004D078091380290913902A0913A02B09120
:102710003B0273016201C81AD90AEA0AFB0AD7010F
:10272000C601B7FF07C0B095A095909581959F4FC2
:10273000AF4FBF4F0297A105B105ACF140923802EF
:102740005092390260923A0270923B020E94120447
:10275000609334027093350280933602909337026F
:102760008091860290918702A0918802B09189029F
:102770008B7F8093860290938702A0938802B09308
:10278000890244CE20E030E042ED52EC2C8F3D8FA8
:102790004E8F5F8F69CF273E3F4F0CF0AFCFBC010C
:1027A00069517109ABCF0E9412040091340210915B
:1027B00035022091360230913702601B710B820B7B
:1027C000930B6D3D75408105910508F41FCE90E097
:1027D00080E00E944D078091860290918702A0912F
:1027E0008802B09189028460C4CF412C512C94E3BB
:1027F000692E93EC792EC3CB412C512C84E3682EA7
:1028000083E4782EBCCBC701B6010E941A1687FF5D
:10281000B3CDC1CEA1E21A2EAA1BBB1BFD010DC078
:10282000AA1FBB1FEE1FFF1FA217B307E407F50780
:1028300020F0A21BB30BE40BF50B661F771F881F5C
:10284000991F1A9469F760957095809590959B01F2
:10285000AC01BD01CF010895EE0FFF1F881F8BBF94
:102860000790F691E02D19940E943F14A59F900DBA
:10287000B49F900DA49F800D911D11240895A29FD7
:10288000B001B39FC001A39F700D811D1124911D44
:10289000B29F700D811D1124911D08955058BB27C2
:1028A000AA270E9466140C94E0150E94D21538F0F5
:1028B0000E94D91520F039F49F3F19F426F40C94A6
:1028C000CF150EF4E095E7FB0C94C915E92F0E9493
:1028D000F11558F3BA17620773078407950720F0BC
:1028E00079F4A6F50C9413160EF4E0950B2EBA2F7E
:1028F000A02D0B01B90190010C01CA01A001112406
:10290000FF27591B99F0593F50F4503E68F11A16B1
:10291000F040A22F232F342F4427585FF3CF469542
:1029200037952795A795F0405395C9F77EF41F1664
:10293000BA0B620B730B840BBAF09150A1F0FF0F2E
:10294000BB1F661F771F881FC2F70EC0BA0F621F1A
:10295000731F841F48F4879577956795B795F7950A
:102960009E3F08F0B0CF9395880F08F09927EE0F9F
:102970009795879508950E94A51508F481E008951C
:102980000E94D4140C94E0150E94D91558F00E94AE
:10299000D21540F029F45F3F29F00C94C91551116C
:1029A0000C9414160C94CF150E94F11568F399231A
:1029B000B1F3552391F3951B550BBB27AA2762173B
:1029C0007307840738F09F5F5F4F220F331F441F48
:1029D000AA1FA9F335D00E2E3AF0E0E832D091507C
:1029E0005040E695001CCAF72BD0FE2F29D0660F69
:1029F000771F881FBB1F261737074807AB07B0E8AC
:102A000009F0BB0B802DBF01FF2793585F4F3AF0B1
:102A10009E3F510578F00C94C9150C9414165F3F35
:102A2000E4F3983ED4F3869577956795B795F79537
:102A30009F5FC9F7880F911D9695879597F908951F
:102A4000E1E0660F771F881FBB1F621773078407BB
:102A5000BA0720F0621B730B840BBA0BEE1F88F7CA
:102A6000E09508950E9439156894B1110C941416DC
:102A700008950E94F91588F09F5798F0B92F99276B
:102A8000B751B0F0E1F0660F771F881F991F1AF059
:102A9000BA95C9F714C0B13091F00E941316B1E095
:102AA00008950C941316672F782F8827B85F39F094
:102AB000B93FCCF3869577956795B395D9F73EF4F2
:102AC00090958095709561957F4F8F4F9F4F08959A
:102AD000E89409C097FB3EF49095809570956195B8
:102AE0007F4F8F4F9F4F9923A9F0F92F96E9BB276E
:102AF0009395F695879577956795B795F111F8CFEA
:102B0000FAF4BB0F11F460FF1BC06F5F7F4F8F4F54
:102B10009F4F16C0882311F096E911C0772321F04A
:102B20009EE8872F762F05C0662371F096E8862FE2
:102B300070E060E02AF09A95660F771F881FDAF739
:102B4000880F9695879597F90895990F0008550F66
:102B5000AA0BE0E8FEEF16161706E807F907C0F023
:102B600012161306E407F50798F0621B730B840B2B
:102B7000950B39F40A2661F0232B242B252B21F405
:102B800008950A2609F4A140A6958FEF811D811DA5
:102B9000089597F99F6780E870E060E008959FEFDF
:102BA00080EC089500240A941616170618060906E4
:102BB000089500240A9412161306140605060895B3
:102BC000092E0394000C11F4882352F0BB0F40F43B
:102BD000BF2B11F460FF04C06F5F7F4F8F4F9F4F7B
:102BE000089557FD9058440F551F59F05F3F71F0FD
:102BF0004795880F97FB991F61F09F3F79F0879564
:102C00000895121613061406551FF2CF4695F1DFEC
:102C100008C0161617061806991FF1CF869571057C
:102C2000610508940895E894BB2766277727CB01B0
:102C300097F908950E94A51508F48FEF08950E9452
:102C4000F91558F19E5760F19851A0F0E9F09830CD
:102C500020F5092E9927660F771F881F991F0A9460
:102C6000D1F712C0062E672F782F8827985F11F4AE
:102C7000000C07C0993FB4F38695779567959395B7
:102C8000D9F7611D711D811D3EF490958095709559
:102C900061957F4F8F4F9F4F089568940C94141641
:102CA0000C9413160E9465160C94E0150E94D21520
:102CB00038F00E94D91520F0952311F00C94C91515
:102CC0000C94CF1511240C9414160E94F11570F376
:102CD000959FC1F3950F50E0551F629FF001729FC1
:102CE000BB27F00DB11D639FAA27F00DB11DAA1FD0
:102CF000649F6627B00DA11D661F829F2227B00D1D
:102D0000A11D621F739FB00DA11D621F839FA00DA7
:102D1000611D221F749F3327A00D611D231F849FF7
:102D2000600D211D822F762F6A2F11249F5750404E
:102D30009AF0F1F088234AF0EE0FFF1FBB1F661FC9
:102D4000771F881F91505040A9F79E3F510580F092
:102D50000C94C9150C9414165F3FE4F3983ED4F319
:102D6000869577956795B795F795E7959F5FC1F736
:102D7000FE2B880F911D9695879597F908950E94CF
:102D8000A515880B990B0895FB01DC0102C0019089
:0E2D90000D9241505040D8F70895F894FFCFAF
:102D9E0081048104810481048104810481048104FD
:102DAE00010000000022058204AF048A05E004BE83
:102DBE0004D2040D0A006E616E00696E66006F76B5
:022DCE0066009D
:00000001FF
